:10C000005542200135D0085A82453C023140000497
:10C010003F4000000F93082492423C0220012F83EE
:10C020009F4F06C50002F8233F403C000F930724B2
:10C0300092423C0220011F83CF430002F923B24009
:10C04000805A2001D242FF105700D242FE10560003
:10C05000F2F0F9FF5800B0126AC4F2D04100220099
:10C06000F2F0BEFF2100B012B2C2D2430802B012F9
:10C07000ECC2C2430602B240D0077201B2401002C5
:10C080006001B24010006201B2407000640192434E
:10C09000740132D23C40E803B2D00300B00132D088
:10C0A00018005D4200021E42B4014F4D0F5F0F5F4A
:10C0B0003F5018028F4E00008F4302004F4D5F53D8
:10C0C000C24F00027F920220C24300023D4018028C
:10C0D0000E430F433E5D3F6D3D903802FB230F1131
:10C0E0000E100F110E100F110E10824E1402824FFF
:10C0F00016023C531020D2430602A2426201B24013
:10C10000E0026001F2D006002600E2D32200C293D2
:10C1100004021024043CC2930402B9205B3CB240E8
:10C12000F8003A02B01274C3C24304021E42140261
:10C130001F4216020C4E0D4F0C5C0D6D0C5E0D6F08
:10C140000C5C0D6D0C5C0D6D0C5C0D6D0C5C0D6D67
:10C150000C5C0D6D0C8E0D7F0C5C0D6D0C5C0D6D13
:10C160000C5C0D6D0C5E0D6F0A4C0B4D3A503AAFE6
:10C170003B60F8FF0B9306340A4C0B4D3A5039B331
:10C180003B60F8FF0E4A0F4B0E4A8E108F104EEF99
:10C190000EEF8F110F110E100F110E10C24E3A023A
:10C1A000C2433B02B01274C3C2430602B240D0077E
:10C1B0007201B24010026001B24010006201B24050
:10C1C00070006401924374011E4214021F42160261
:10C1D0003C40E8031E820E021F721002824E0A02C9
:10C1E000824F0C023F9305380F9315343E90FBFFAE
:10C1F000122C0A4E0B4F3AE33BE3824A0A02824B6F
:10C200000C0292530A0282630C02E2430202F2F031
:10C21000FEFF2100183C0F930A3803203E900600D1
:10C220000628D2430202F2F0BFFF21000C3CC243B9
:10C230000202B2F0EFFF6201B2F0EFFF6401F2F030
:10C24000BEFF2100293F1E420A021F420C020E5E61
:10C250000F6F0E5E0F6F0E5E0F6F3E5014000F6378
:10C26000824E0A02824F0C020F93073803203E9041
:10C27000D00703283E40CF070F43824E7401B2D04F
:10C2800010006201B2D010006401304098C0D24367
:10C290000602A2426201B240E0026001F2D0060052
:10C2A0002600E2D322003B3F32D0F000FD3F304079
:10C2B00004C5F2D041002200D2D32100F2F0BFFF2A
:10C2C0002100F2D010005700F2D020005300B240FD
:10C2D000B0047201B24010016001B240700064010C
:10C2E000B2405802740132D0D8003041B24060A050
:10C2F000B201B2403838B0013F404C011F83FE23E9
:10C3000003430343B2D00300B00132D018001E42F1
:10C31000B401824E0E02824310023F4018028F4E3B
:10C3200000008F4302002F523F903802F823824EC4
:10C330001402824316023041C2430602B240D007C3
:10C340007201B24010026001B24010006201B240BE
:10C3500070006401924374013041D2430602A2424C
:10C360006201B240E0026001F2D006002600E2D392
:10C3700022003041F2400A003802B24020696201D6
:10C38000B2D00030620192B36201FD27B250340096
:10C390007201B2D000013A0292523A023A02B2401D
:10C3A00030106201B2B010006201FC2330410F1264
:10C3B0000E120D12D293060211245F4202025F9305
:10C3C0002F246F930724B2F0FEFF62013D413E41EE
:10C3D0003F410013F2D040002100F53FB25034003D
:10C3E00072011F4262013FB00010F0275E42380226
:10C3F0004E931924B2D0800062011D423A021DB34F
:10C400000324B2F07FFF6201824D3A0212C3121080
:10C410003A027E53C24E38023D413E413F41001335
:10C42000D2D32100D03FF2F0F9FF2600B2F0EFFFA7
:10C430006201CC3F0F12B2F0FEFF6401D2930802FA
:10C440000524F2E0410021003F410013F2F0BEFF5D
:10C4500021003F410013D242FF105700D242FE108C
:10C460005600F2F0F9FF58003041F2F0F7FF2200D9
:10C47000F2D22100F2D22700F2D22400F2F0F7FF2C
:10C480002300F2D225003041F2D041002200F2F028
:10C49000BEFF210030410F12C2432300F2F0F7FF2C
:10C4A0002500B2401D5A2001F2F0FEFF0200D2D357
:10C4B0000000D29308020A24D2430802B2F0EFFF30
:10C4C0006401B1C0D00002003F4100139242140247
:10C4D0000E02924216021002D24304023F410013A0
:10C4E0000F12F2F0FEFF0000F2F0FEFF0200B24079
:10C4F000805A2001F2D225003F410013B1C0100044
:06C500000000001300130F
:10FFE000AEC2AEC296C4AEC2AEC2FCC4AEC2AEC257
:10FFF00034C4AEC3E0C4AEC2AEC2AEC2AEC200C074
:040000030000C00039
:00000001FF
